:10000000F8FF0020110400008D1E00001B1E0000E0
:100010008D1E00008D1E00008D1E00008D1E000034
:100020008D1E00008D1E00008D1E00008D1E000024
:100030008D1E00008D1E00008D1E00008D1E000014
:100040008D1E00008D1E00008D1E00008D1E000004
:100050008D1E00008D1E00008D1E00008D1E0000F4
:100060008D1E00008D1E00008D1E00008D1E0000E4
:100070008D1E00008D1E00008D1E00008D1E0000D4
:100080008D1E00008D1E00008D1E00008D1E0000C4
:100090008D1E00008D1E00008D1E00008D1E0000B4
:1000A0008D1E00008D1E00008D1E00008D1E0000A4
:1000B0008D1E00008D1E00008D1E00008D1E000094
:1000C0008D1E00008D1E00008D1E00008D1E000084
:1000D0008D1E00008D1E00008D1E00008D1E000074
:1000E0008D1E00008D1E00008D1E00008D1E000064
:1000F0008D1E0000151E00008D1E00008D1E0000CC
:100100008D1E00008D1E00008D1E00008D1E000043
:100110008D1E00008D1E00008D1E00008D1E000033
:100120008D1E00008D1E00008D1E00008D1E000023
:100130008D1E00008D1E00008D1E00008D1E000013
:100140008D1E00008D1E00008D1E00008D1E000003
:10015000011E00008D1E00008D1E00008D1E00007F
:100160008D1E00008D1E00008D1E00008D1E0000E3
:100170008D1E00008D1E00008D1E00008D1E0000D3
:100180008D1E00008D1E00008D1E00008D1E0000C3
:100190008D1E00008D1E00008D1E00008D1E0000B3
:10040000FFFFFFFFFFFFFFFFFFFFFFFFFEFFFFFFFD
:1004100062B64FF000004FF000014FF000024FF0C5
:1004200000034FF000044FF000054FF000064FF0BE
:1004300000074FF000084FF000094FF0000A4FF09E
:10044000000B4FF0000C01F0B3FDFEE710B50C46B9
:100450001168012902D0022904D008E05168C0B215
:10046000884704E0916808709068401C906020689C
:10047000401C206010BD30B4002400F8014B002A5D
:10048000096812D091B191FBF3F203FB121100291C
:1004900046BFC94301F1310501F130051146641C25
:1004A00000F8015B0029EED114E019B93021017088
:1004B00001240FE0B1FBF3F203FB12110A2934BF50
:1004C00001F1300501F137051146641C00F8015BAC
:1004D0000029EFD1204630BC7047F8B507460C46DE
:1004E00015461E46A74214DA3068012808D00228B3
:1004F00009D1B06830210170B068401CB06002E0E2
:100500003020716888472868401C7F1C2860A742FB
:10051000EADBF1BDF8B507460C4615461E46A74274
:1005200014DA3068012808D0022809D1B0682021E7
:100530000170B068401CB06002E0202071688847FC
:100540002868401C7F1C2860A742EADBF1BD2DE92A
:10055000F04F8DB005460020934600900C4604E015
:100560002A4600A9FFF772FF641C2078002800F0DB
:10057000D881252826D00A28F2D12868012808D059
:10058000022809D1A8680D210170A868401CA86044
:1005900002E00D20696888470098401C0090286898
:1005A000012808D0022809D1A8680A210170A8688A
:1005B000401CA86002E00A20696888470098401C37
:1005C0000090D1E7002701E047F0100714F8010F71
:1005D00020280ED02328F7D02B2807D02D2802D092
:1005E000302809D00BE047F00107EFE747F002079A
:1005F000ECE747F00407E9E747F00807E6E7611E84
:100600004FF0000805E008EB880200EB4200A0F183
:10061000300811F8010FA0F13002092AF3D92E2871
:1006200004D111F8010F30380928FAD94C1E14F8FA
:10063000010F4C2818BF682802D06C2818BF641E10
:1006400014F8010F582867D0622800F0078163284A
:1006500000F03781642818BF692811D06E2800F097
:100660005B816F2800F0F580702800F0FC80732813
:1006700000F02B81752800F0FB8078284CD06FE7C4
:100680005BF8040B02900A23012202A903A8FFF7DA
:10069000F2FE824603A80AEB00090298002848BF30
:1006A0002D2606D4B80748BF2B2602D4780703D5D9
:1006B00020260AF1010A00E00026380708D5002E9E
:1006C00000F0E5802A4600A93046FFF7BFFEDEE0D5
:1006D000F8070CD42B4600AA41465046FFF71AFFF4
:1006E000002E00F0E4802A4600A93046E6E0002E05
:1006F00000F0DD802868012807D0022808D1A8680A
:100700000670A868401CA86002E030466968884707
:100710000098401C0090CAE010235BF8040B019085
:10072000002201A903A8FFF7A6FE824603A80AEB50
:100730000009002638072ED5F80624D52868012898
:1007400008D0022809D1A86830210170A868401C8F
:10075000A86002E03020696888470098401C00903B
:100760002868012808D0022809D1A86878210170DA
:10077000A868401CA86002E0782069688847009853
:10078000401C009001262B4600AA41465046FFF728
:10079000A4FEC24632E0F80730D4F80648BF0AF19A
:1007A000020A2B4600AA41465046FFF7B3FEF80660
:1007B00024D52868012808D0022809D1A86830214A
:1007C0000170A868401CA86002E030206968884772
:1007D0000098401C00902868012808D0022809D100
:1007E000A86878210170A868401CA86002E0782001
:1007F000696888470098401C00900126F80656D585
:10080000002E54D12868012808D0022809D1A868F0
:1008100030210170A868401CA86002E0302069689F
:1008200088470098401C00902868012808D00228BA
:1008300009D1A86878210170A868401CA86002E06E
:100840007820696888470098401C00900AF1020AE5
:100850002DE05BF8040B019008230DE05BF8040B1E
:100860000190022308E05BF8040B0190102303E0E1
:100870005BF8040B01900A23002201A903A8FFF7EB
:10088000FAFD824603A80AEB0009380707D52B4674
:1008900000AA41465046FFF720FEC24607E0F8078F
:1008A00005D42B4600AA41465046FFF733FE99F87F
:1008B000000038B319F801092A4600A9FFF7C6FD60
:1008C000F5E75BF8040BC0B24AE65BF8049BB9F1AC
:1008D000000F3FF449AE484600F038F88246F8076A
:1008E0000CD42B4600AA41465046FFF713FE05E004
:1008F00019F8010B2A4600A9FFF7A8FD99F8000096
:100900000028F5D1F8077FF52FAE2B4600AA414607
:100910005046FFF7FFFD27E65BF8040B00990160E6
:1009200022E600980DB0BDE8F08F0EB400B584B09B
:100930000121009105AA04490191014600A8FFF791
:1009400006FE04B05DF810FBD11F0000002108B9BD
:100950007047491C10F8012B002AFAD1084670474D
:1009600070B50025142400220821002000F018F999
:1009700015FA80F5641EF6D1A14C1420B5FBF0F0F9
:1009800020700025142600220921002000F008F91B
:1009900015FA80F5761EF6D11420B5FBF0F06070E4
:1009A0000025142600220C21002000F0F9F815FA89
:1009B00080F5761EF6D11420B5FBF0F0A07000256E
:1009C000142600220D21002000F0EAF815FA80F527
:1009D000761EF6D11420B5FBF0F0E0700025142649
:1009E00000220A21002000F0DBF815FA80F5761EBF
:1009F000F6D11420B5FBF0F020710025142600225A
:100A00000B21002000F0CCF815FA80F5761EF6D107
:100A10001420B5FBF0F0607121787A48816161782B
:100A2000C161A1780162E1784162217981626179D5
:100A3000C16270BD10B101284BD070477248426A44
:100A400042F000624262026822F0900202600022DC
:100A50000260A1F108020A2A00F2A180DFE802F098
:100A600071710606131320209F2D2D00026A42F497
:100A700000720262880000F1804000F5922000219F
:100A800040F80C1C7047026A42F4806202628800DF
:100A900000F1804000F59420002140F8281C7047A8
:100AA000026A42F400620262880000F1804000F5B0
:100AB0009620002140F8381C7047026A42F4005228
:100AC0000262880000F1804000F59A200021C16197
:100AD00070474D48826942F000628261026822F4E8
:100AE0001042026000220260484A136843F010037B
:100AF00013600A1F0D2A52D8DFE802F0070D151BFC
:100B00002323303030303D3D514A016A41F40061C9
:100B100001623F4841E0016A41F400610162002145
:100B20003B4841607047016A41F400610162384806
:100B300011E0016A41F40061016200213448C160A2
:100B40007047026A42F480620262880000F18040CD
:100B500000F594202838002181607047026A42F431
:100B600080620262880000F1804000F594202838FD
:100B7000002101617047026A42F4806202628800CB
:100B800000F1804000F594202838002181617047F1
:100B9000016A41F4007101621E4800210160704742
:100BA00010B5044600F012F81B4800F1100151F88E
:100BB000241009680906F8D500EB8400016908696A
:100BC0000A6822F080020A6080B210BD124B01F068
:100BD0001F0141F04001197203EB8000910001F008
:100BE0000C0141F0500119701421597041F2342167
:100BF000598045F27861998019460FE000000000A5
:100C00006C07FF1F8407FF1F188004400CB00B40C7
:100C100020B00440449004401004FF1F00690A788B
:100C200082604A78C2604A8882618A88C2618A7911
:100C30000262CA794262CA6802650A7A0260497A27
:100C4000416070470000000000000000000000004C
:100C50000000000000B0034000B00B4000800340E3
:100C60000090034000800B4000F00F4040F00F4028
:100C700080F00F40C0F00F4000F10F4000900440A2
:100C800000A0044000B0044000C0044000D0044074
:100C900032000000040000002800000004000000F2
:100CA000040000000B1F000000090000000000000D
:100CB00000000000004F00000000070007000014C3
:100CC0007F147F1400242A7F2A12002313086462F1
:100CD00000364955225000000503000000001C2288
:100CE0004100000041221C000014083E08140008C6
:100CF000083E0808000050300000000808080808F6
:100D0000000060600000002010080402003E51490D
:100D1000453E0000427F40000042615149460021AB
:100D200041454B31001814127F10002745454539C5
:100D3000003C4A4949300001710905030036494920
:100D4000493600064949291E0000363600000000D9
:100D50005636000000081422410000141414141424
:100D600000004122140800020151090600324979AD
:100D7000413E007E1111117E007F4949493E003EEF
:100D800041414122007F4141221C007F49494941A4
:100D9000007F09090901003E4149497A007F08089E
:100DA000087F0000417F4100002040413F01007F5B
:100DB00008142241007F40404040007F0204027F2F
:100DC000007F0408107F003E4141413E007F090939
:100DD0000906003E4151215E007F0919294600465F
:100DE000494949310001017F0101003F4040403F36
:100DF000001F2040201F003F4038403F0063140880
:100E00001463000304780403006151494543000062
:100E10007F4141000015167C1615000041417F00FE
:100E20000004020102040040404040400000010272
:100E30000400002054545478007F4844443800385B
:100E40004444442000384444487F003854545418E3
:100E500000087E090102000C5252523E007F080435
:100E600004780000447D4000002040443D00007FA5
:100E7000102844000000417F4000007E020C027CEC
:100E8000007E0402027C003844444438007C141480
:100E9000140800081414187C007C08040408004896
:100EA0005454542000043F444020003C4040207CE7
:100EB000001C2040201C003C4030403C00442810D6
:100EC0002844000C5050503C004464544C440000F2
:100ED000083641000000007F000000004136080095
:100EE0000008040810080008082A1C0800081C2A2A
:100EF00008080004027F02040010207F2010001C5C
:100F00002A322A1C001C2244221C000000A0064099
:100F100000B0064000C0064000D0064000A00E40D1
:100F200000B00E4010B5012301220421032000F07F
:100F300047F901231A460221032000F041F9012359
:100F40001A460021032000F03BF901231A46112123
:100F5000022000F035F901231A460F21022000F08B
:100F60002FF901231A460D21022000F029F9DFF89C
:100F70004442206820F0100020600120C046C04696
:100F8000206840F010002060206820F004002060FD
:100F90000120C046C046206840F0040020600120C7
:100FA000C046C0460021212000F02DF80021BA20C3
:100FB00000F029F80021062000F025F80021132078
:100FC00000F021F80021202000F01DF800F009F8C1
:100FD00000210C2000F017F8206820F004002060A9
:100FE00010BD10B500210C2000F00DF8002180206C
:100FF00000F009F84FF4FC740121002000F003F820
:10100000641EF9D110BD0029DFF8AC21136C23F068
:1010100004031364116C06BF4908490041F0010143
:1010200011640821030613684CBF43F4003323F412
:10103000003313604000136823F400431360491E1B
:10104000136843F400431360ECD1106C40F00400CB
:101050001064704710B504460846002140F0400077
:10106000FFF7D1FF44F08000BDE810400021CAE73F
:101070002DE9F04385B00C4600A9002500262F4637
:10108000E0C160C10A21B2FBF1F101EB8105A2EBE5
:10109000450500950A270A25B1FBF5F505EB850600
:1010A000A1EB46016426B2FBF6F600ADB6FBF7F7FE
:1010B00007EB87076960A6EB47064FF47A77B2FB28
:1010C000F7F74FF00A0C1031B7FBFCFC69600CEB32
:1010D0008C0EAE6042F2107C06F11001B2FBFCF205
:1010E000A960A7EB4E074FF00A0CEF60B2FBFCFCC7
:1010F00007F110010CEB8C0EE960A2EB4E02DDF85B
:1011000000C02A6102F110010CF1100E2961CDF826
:1011100000E01D004AD0002151FA80F600A800EB43
:101120008500071FDFF89080DFF890902146F0B22D
:10113000FFF790FF0020396801EB410209EB420103
:10114000415CD8F8402022F00402C8F84020D8F8CA
:10115000402042F00102C8F8402008220B06D8F8CF
:1011600000304CBF43F4003323F40033C8F80030A0
:101170004900D8F8003023F40043C8F80030521E6C
:10118000D8F8003043F40043C8F80030E6D1D8F86E
:10119000401041F00401401CC8F840100628CADB8A
:1011A0006D1EEDB23F1FB61D002DBFD105B0BDE8CD
:1011B000F0830000C0F00F4080F00F407804FF1F64
:1011C00070B4154C04EB800542F480766D6945F8E7
:1011D0002160D50703D5032A18BF132A0AD154F872
:1011E00020004269012303FA01F122EA0101416171
:1011F00070BC704754F82000012202FA01F14269E4
:101200000A434261012B02680CBF114322EA01012B
:10121000016070BC704700003404FF1F10B5FFE789
:10122000FFF7DFFE6A4C2268042300210020FFF74D
:101230001FFFA269042300211E20FFF719FF226B64
:10124000042300213C20FFF713FF626804230121DF
:101250000020FFF70DFFE269042301211E20FFF7A4
:1012600007FF626B042301213C20FFF701FFA26806
:10127000042302210020FFF7FBFE226A042302213F
:101280001E20FFF7F5FEA26B042302213C20FFF78E
:10129000EFFEE268042303210020FFF7E9FE626A03
:1012A000042303211E20FFF7E3FEE26B0423032146
:1012B0003C20FFF7DDFE0423226919460020FFF7DA
:1012C000D7FE0423A26A19461E20FFF7D1FE04238D
:1012D000226C19463C20FFF7CBFE626904230521EE
:1012E0000020FFF7C5FEE26A042305211E20FFF758
:1012F000BFFE626CBDE81040042305213C20FFF7CF
:10130000B7BE2DE9F041334F064638680C46154606
:101310009846C0F3006038B90A2000F05FF83868DA
:10132000C0F3006000B9B0472B4E3068C0F34030C6
:1013300038B90A2000F052F83068C0F3403000B9E4
:10134000A0473068C0F3401038B90A2000F046F8D2
:101350003068C0F3401000B9A8473868C0F3806017
:1013600038B90A2000F03AF83868C0F3806000B954
:10137000C047BDE8F08118480168C1F3004111B9C8
:10138000134902220A630168C1F3803111B910497F
:1013900002224A630068C0F3003010B90C480221F1
:1013A000816370470A488168491C8160704708481A
:1013B000C168491CC160704705480169491C016149
:1013C000704703484169491C4161704700000000B3
:1013D0008407FF1F10F10F4010F00F4038B104498F
:1013E000096811B100BF491EFCD1401EF7D17047FA
:1013F000D407FF1FDFF800F0F106FF1F70B50028CB
:1014000000F08C8030281ED0322826D0602827D0CB
:10141000642849D06E2826D0782827D07D2828D067
:10142000822829D08C282AD096282BD0A0282CD0EE
:10143000AA282CD0B4282DD0C8282ED0E1282ED010
:10144000FA282ED02FE018210022574C217062700C
:101450000021A170332829DA34E018210122F4E7B1
:1014600018211822F1E718211F22EEE71321182274
:10147000EBE713211A22E8E713211C22E5E70E21EE
:101480001222E2E70E211522DFE70E21EFE70E21FF
:101490001B22DAE70E211E22D7E70C21EDE70B21F4
:1014A000F9E70A21E0E764201821E3E76528B8BFDF
:1014B000012107DB9728B8BF022103DBC928B4BF8D
:1014C00003210F21E1701A28E1782171B8BF0020B3
:1014D00023DB3328B8BF01201FDB4C28B8BF022014
:1014E0001BDB6528B8BF032017DB7E28B8BF0420AC
:1014F00013DB9728B8BF05200FDBB028B8BF062044
:101500000BDBC928B8BF072007DBE228B8BF0820DB
:1015100003DBFB28B4BF09200F2060713221224C6D
:10152000224E6078183080B248432178491C89B235
:1015300090FBF1F5002070701D48016841F080516A
:1015400001601C48017841F08001017098203070E2
:10155000B079C006FCD4B079C0F381000228FAD17A
:10156000207800F01F0030710020707163792279BB
:10157000E178A078FFF73EFF607800F01F0040F0B0
:1015800040007071B0798006FCD5B0794006FCD57A
:10159000307800F03F003070B079C0F3810003284C
:1015A000FAD1E8B270BD00BF7004FF1F00400640D2
:1015B0003480044008C00740F0B4DFF89841246844
:1015C0004FF47A756C4365082C0CB4FBF2F6B6B296
:1015D000002400E0641C26FA04F7012FFADAB2F5C1
:1015E0007A7F38BF641CE540B5FBF2F292B2551C1D
:1015F0006B4342F21075B3FBF5F320B1022800F003
:101600007D8061D314E0544DEE6846F08076EE6044
:10161000072924D8DFE801F004252E3740464C5234
:10162000AE6846F40066AE604C4D4FF480662E60A6
:101630004B4D55F8200000EBC10104F00704CD68C4
:1016400025F00405CD6044F028042825CD60046011
:101650009BB20024C4648260C4640B614460F0BC2B
:101660007047AE6846F40066AE603C4D4FF480664D
:101670006E60DDE7AE6846F40066AE60374D4FF44D
:101680008066AE60D4E7AE6846F40066AE60334D67
:101690004FF48066EE60CBE7AE6846F48056AE60ED
:1016A000304DC2E7AE6846F48056AE602D4DDDE7A2
:1016B000AE6846F48056AE602A4DE0E7AE6846F468
:1016C0008056AE60274DE3E7234DEE6846F0007686
:1016D000EE6019B1012909D0F0BC7047AE6846F43C
:1016E0000076AE604FF440761F4DA0E7AE6846F43A
:1016F0000076AE604FF440761B4DB9E7164D2E686C
:1017000046F080762E6019B1012909D0F0BC7047EF
:10171000AE6846F40076AE604FF44076124DB0E706
:10172000AE6846F40076AE604FF440760E4DB1E7F9
:1017300030B40B4B53F82040A568002DFCD0681C3A
:10174000504342F2107204EBC101B0FBF2F00861A9
:1017500030BC7047D407FF1F3080044004B0044001
:101760002804FF1F10C004402090044010B500F072
:101770005EF8C22347F6FF728021042000F098F83B
:10178000FFF7D0FB4FF46141012000F00BF900F0AE
:1017900033F80022002310211046FFF711FD00232B
:1017A0001A460E211046FFF70BFD00231A460C21A6
:1017B0001046FFF705FD364800684FF47A71414343
:1017C000002000F08BF93348036842F210740121C5
:1017D00022460846FFF7F0FE2F4803682246012103
:1017E0000220FFF7E9FE2346BDE810404FF4967251
:1017F00001210020FFF7E0BE80B5002303220D2168
:101800000020FFF7DDFC0023032218210420FFF74E
:10181000D7FC0023032205211846FFF7D1FCBDE8C1
:101820000050002303221A210420FFF7C9BC80B511
:1018300008210020FFF7FEF809210020FFF7FAF841
:101840000C210020FFF7F6F80D210020FFF7F2F839
:101850000A210020FFF7EEF8BDE804400B2100202C
:10186000FFF7E8B80B480021016041F294110A48E3
:10187000016025210948016065210948016028218E
:101880000848016004210848016008480160704769
:10189000D407FF1F7C07FF1F8007FF1F5C04FF1F8B
:1018A0006004FF1F6404FF1F6C04FF1F6804FF1F18
:1018B000FCB4B2F5004F28BF47F6FF72374C324EEA
:1018C000374F44F8202001F01F0C2E4CA56845F03E
:1018D0000205A560656845F0020565604501AF51E8
:1018E000AD1900262F61AE80AE82EE805604760CD4
:1018F000EE82D605F60DEE835242244E376827F06D
:10190000800737600127AF60EA600022AA610A22DF
:10191000AA834A0902F131051D4F45F08005C555DE
:101920004FF40077256807FA02F22A4322604D0936
:10193000184A52F825205769012404FA0CFC27EABA
:101940000C07DFF854C0576101F01F075CF8255001
:1019500003F0030C9B0943EA0C4343F4807345F8FE
:1019600027304B1E9B41DB43DB0F516904FA03F325
:101970009943516104FA00F2F1681143F160F6BC39
:1019800000F0D1B838800440009000400080004052
:10199000001002403404FF1F4804FF1F2C07FF1FE4
:1019A0000C000440F0B4052841D8DFE800F0030D36
:1019B00017212C36424A4FF4407313615361414A58
:1019C000D36843F480631CE03F4A4FF440731360D4
:1019D00053603C4AD36843F4006312E0384A4FF442
:1019E000407353601360374AD36843F4805308E070
:1019F000354A4FF4407353639363324AD36843F4D8
:101A00000053D36013E0314A4FF4407353641364BE
:101A10002C4A136843F4806308E02C4A4FF4407367
:101A200053601360274A136843F400631360284B24
:101A3000024653F82240E57805F0F305E5700025ED
:101A400053F82240A570441EA441012A18BF00206B
:101A50004FF47A7550EAD47014BF1E481E480068CF
:101A6000684353F822502E780901B0FBF1F42704A3
:101A70003F0E06F0E00607F01F073E432E704001C0
:101A800053F822506C70B0FBF1F053F82240A57A65
:101A900005F0E00500F01F002843A07253F8220073
:101AA000C17841F00C01C170F0BC7047084A52F88F
:101AB000203093F804C05FEA0C6CFAD5D9717047F6
:101AC00008C00440288004400CB0044020D00440EA
:101AD000D806FF1FCC07FF1FD407FF1F0D4A13684E
:101AE00043F4000313600C4A13689B089B00FFE754
:101AF00013600201094BD1504430D118CA6842F03A
:101B00000102CA608A6842F003028A6000F00BB8E2
:101B1000000000003C80044000700340007103405E
:101B200018490860704710B504465C2CA4BF0FF23A
:101B30006000FEF7FAFE201104EBD060401103D0E4
:101B4000022815D00AD310BD0121A4EB401001FAE0
:101B500000F00D4908600D49086010BD0121A4EB9B
:101B6000401001FA00F0084948600849486010BD7B
:101B70000121A4EB401001FA00F0034988600349F9
:101B8000886010BD08ED00E080E200E000E100E0C8
:101B90000A4552522120496E76616C69642049528F
:101BA000512076616C756520706173736564207473
:101BB0006F20656E61626C65206972712066756E5A
:101BC0006374696F6E210A0062B38B0708D0521EDE
:101BD00011F8013B00F8013B00F024808B07F6D19F
:101BE000830740F0208000BF103A07D330B4B1E83B
:101BF0003810103AA0E83810F9D230BC530724BF8F
:101C0000B1E80810A0E8081044BF51F8043B40F8C0
:101C1000043BD20724BF31F8022B20F8022B44BF2B
:101C20000B7803707047083A07D3B1E80810083AF8
:101C300040F8043B40F804CBF7D25307E4E750F8F0
:101C4000041B61B150F8042BD30744BFA9F1010371
:101C50009A18002342F8043B091FFAD1EFE77047B6
:101C60002DE9F04172B6FFF7FDFDFFF77FFD62B68B
:101C70000FF24C040E4D0F4E0F4FDFF84080FEF771
:101C80006FFEC046C04600F023F8C046C04643463B
:101C90003A4631462846FFF734FBFFF76CFB032337
:101CA000022201212046FEF740FEFFF7B7FAE6E7E1
:101CB000A5130000C3130000B9130000AF13000008
:101CC00025642020256420202564200A00000000CF
:101CD0001148124B90F90010114A90F901001B684D
:101CE0001268081A584301FB020000F58050FE30CC
:101CF00041F2D5718842A8BF41F2D47004DA40F6AF
:101D0000FC018842B8BF0846064908600246002127
:101D10000020FFF70DBD00BF7407FF1F6004FF1F09
:101D20005C04FF1F7807FF1F10B51149114C8C424E
:101D300004D04FF482522046FFF756FF2046FFF7AB
:101D4000EFFE0D490D48421A1CBF0D48FFF73CFF3E
:101D50000C480D49091A18BF00F01EF80B490C4831
:101D6000421A04D0BDE810400A48FFF72DBF10BD4D
:101D7000000000000000FF1F440C0000240F0000C2
:101D80001004FF1F2C07FF1FD807FF1FCC1E0000E9
:101D9000081F0000F006FF1F002200F001B800003D
:101DA000401810F0030308D0C91A1FD3DB0748BF3F
:101DB00000F8012D28BF20F8022D130030B414467E
:101DC0001546103928BF20E93C00FAD8490728BF3A
:101DD00020E90C0048BF40F8042D890028BF20F8F6
:101DE000022D48BF00F8012D30BC7047C91818BF3C
:101DF00000F8012DCB0728BF00F8012D7047000027
:101E00000348016841F001010160FEF7A9BD00002F
:101E10000C71034072B662B6704710B50FF2080439
:101E20002046FEF782FDFBE70A2A2A2A2AD3B2BC03
:101E3000FEC9CFB7C3B4EDCEF32121212A2A2A2A25
:101E40002A0D0A0A0000000038B50E4D0E4C286815
:101E500040F4785028606420FFF7D0FA60604FF4B7
:101E60007A7111FB00F02060E968C1F30361491C3D
:101E7000B0FBF1F0A0604FF46141BDE834400120B7
:101E8000FFF790BD38800440CC07FF1F024801785F
:101E90000FF20800FEF749BD04ED00E00A2A2A2AE5
:101EA0002A64656661756C745F69737220656E740F
:101EB00065726564206F6E20766563746F7220258D
:101EC000642A2A2A2A2A0D0A0A00000070B4090688
:101ED00001F0706141EA0070094C2568266811051F
:101EE00001F470010843190401F47021084346F419
:101EF0007F06044926600860256070BC704700BFFB
:101F000000F001404480044080B500F007F8084824
:101F100001884FF6FE721140018001BD054872B67E
:101F20004CF2205101804DF62811018062B67047B5
:101F3000002005400E20054010B5074979441831AE
:101F4000064C7C44163404E00A68081D5118884782
:101F50000146A142F8D110BD0800000014000000A5
:101F6000DFFCFFFFAC0000002C07FF1F000000009B
:101F70000120C046002801D0FFF7DEFF0020C04648
:101F8000C046FFF76DFE00F000F800F001B8000059
:101F90000746384600F002F8FBE7000080B5C0466F
:101FA000C046024A11001820ABBEFBE72600020023
:101FB00080B5FFF7A9FFFFF7B7FEFFF745FFFFF773
:101FC0004FFEFEE7C046C046C046C046FFF7D0FF02
:081FD00001460120FFF76ABD84
:0400000500001FC513
:00000001FF
