:10000000F8FF002011040000B5330000B32D0000FC
:10001000B5330000B5330000B5330000B533000040
:10002000B5330000B5330000B5330000B533000030
:10003000B5330000B5330000B5330000B533000020
:10004000B5330000B5330000B5330000B533000010
:10005000B5330000B5330000B5330000B533000000
:10006000B5330000B5330000B5330000B5330000F0
:10007000B5330000B5330000B5330000B5330000E0
:10008000B5330000B5330000B5330000B5330000D0
:10009000B5330000B5330000B5330000B5330000C0
:1000A000B5330000B5330000B5330000B5330000B0
:1000B000B5330000B5330000B5330000B5330000A0
:1000C000B5330000B5330000B5330000B533000090
:1000D000B5330000B5330000B5330000B533000080
:1000E000B5330000B5330000B5330000B533000070
:1000F000B5330000AD2D0000B5330000B53300006E
:10010000B5330000B5330000B5330000B53300004F
:10011000B5330000B5330000B5330000B53300003F
:10012000B5330000B5330000B5330000B53300002F
:10013000B5330000B5330000B5330000B53300001F
:10014000B5330000B5330000B5330000B53300000F
:10015000592D0000B5330000B5330000B533000061
:10016000B5330000B5330000B5330000B5330000EF
:10017000B5330000B5330000B5330000B5330000DF
:10018000B5330000B5330000B5330000B5330000CF
:10019000B5330000B5330000B5330000B5330000BF
:10040000FFFFFFFFFFFFFFFFFFFFFFFFFEFFFFFFFD
:1004100062B64FF000004FF000014FF000024FF0C5
:1004200000034FF000044FF000054FF000064FF0BE
:1004300000074FF000084FF000094FF0000A4FF09E
:10044000000B4FF0000C01F0D3F8FEE740B200289B
:1004500003D540B2404240B200E040B2704780B5A0
:10046000002301221821042000F032FB0123012285
:100470000721022000F02CFB01230122052102208C
:1004800000F026FB0521012000F084FB01BD10B522
:10049000DFF81C06006850F08000DFF814160860D2
:1004A00000F0CEF8DFF80806006850F02000DFF812
:1004B0000016086000F0C4F8DFF8F405006830F0BA
:1004C0008000DFF8EC15086000F0BAF8DFF8E0050E
:1004D000006830F02000DFF8D81508600020040024
:1004E000E4B27F2C19DA00F0ABF800F0A9F8DFF8DD
:1004F000C005006850F02000DFF8B415086000F077
:100500009FF800F09DF8DFF8A805006830F02000A3
:10051000DFF89C150860641CE2E700F091F800F039
:100520008FF8DFF88C05006850F02000DFF88015A8
:10053000086000F085F800F083F8DFF874050068C3
:1005400030F02000DFF86815086010BD70B50400B9
:10055000DFF85C05006850F08000DFF85415086093
:1005600000F06EF8DFF84805006850F02000DFF872
:100570004015086000F064F8DFF83405006830F0DA
:100580008000DFF82C15086000F05AF80020050004
:10059000EDB2FA2D03DA00F053F86D1CF8E70022F3
:1005A0000521012000F050FC2070641CDFF80005DC
:1005B000006830F02000DFF8F81408600020050023
:1005C000EDB27F2D22DA00F03BF800F039F8DFF8C9
:1005D000E004006850F02000DFF8D414086000F058
:1005E0002FF800F02DF8002600220521012000F050
:1005F0002BFC06002670641CDFF8B404006830F0A1
:100600002000DFF8AC1408606D1CD9E700F018F882
:1006100000F016F8DFF89804006850F02000DFF8CA
:100620009014086000F00CF800F00AF8DFF880047D
:10063000006830F02000DFF87814086070BD00001A
:1006400081B000208DF800009DF80000002807D13F
:1006500000BF00BF9DF80000401C8DF80000F3E7CC
:1006600001B070472DE9F04104000D00160000278D
:1006700016F13208DFF840045FFA88F8C0F83480D9
:10068000DFF8380400210170DFF834040021017024
:1006900000200700FFB2082F06DAFFB2DFF82404BB
:1006A000FF2139547F1CF5E704200700FFB2502FCB
:1006B0002ADA5FFA88F8FFB238190079FFB2395D9B
:1006C000401A80451EDA5FFA88F8B8F10500FFB2DB
:1006D0003919897AFFB23A5D891A884212DADFF84D
:1006E000DC030078DFF8DC134754BF1DDFF8CC03D0
:1006F0000078401CDFF8C4130870DFF8C0030078EE
:10070000042801DA7F1CD1E77D200700FFB21F2FEC
:100710002DDB5FFA88F8FFB2381910F8040CFFB22D
:10072000395D401A804520DA5FFA88F8B8F1050093
:10073000FFB2391911F80A1CFFB23A5D891A8842D2
:1007400013DADFF87C030078DFF8781340180771BC
:10075000BF1FDFF86C030078401CDFF864130870DB
:10076000DFF85C030078042801DA7F1ECEE7EDB2E3
:10077000002D1FD1DFF844030078032804DADFF8E6
:1007800040030078032805DB05220121DFF824035C
:10079000FFF768FFDFF824030078002804D0DFF8B3
:1007A00020030078002805D17FF004020121C14810
:1007B000FFF758FFBDE8F08110B40300D2B210007B
:1007C000012806D0022806D004280FD0082818D007
:1007D00029E07F2028E0BC48BA4C24780470BA484D
:1007E000FF244470D3F1220040B21DE0B648B54C5E
:1007F00024794470B448FF240470D1F1530040B20E
:1008000012E0B148AF4C24780470AF48AD4C247965
:100810004470C9B251FA83F0022190FBF1F0D0F19B
:10082000400040B200E07F2010BC704738B50400A3
:10083000E4B2A54810EB44004078FF284CD0E4B265
:10084000002C24D09F4890F90400E4B29E4911EB9B
:10085000440191F90110401A40B2FFF7F7FD05007D
:10086000984890F90500E4B2974911EB440191F9D9
:100870000110401A40B2FFF7E9FD6DB2854202DA7D
:100880009048007901E08F484079C0B225E08D485A
:1008900090F90000E4B28C4911EB440191F9011088
:1008A000401A40B2FFF7D2FD0500864890F90100DA
:1008B000E4B2854911EB440191F90110401A40B2AC
:1008C000FFF7C4FD6DB2854202DA7E48007801E090
:1008D0007C484078C0B200E0FF2032BD2DE9F041F5
:1008E00004000D000026F6B2032E14DAF6B27648A4
:1008F00010EB4600F6B2744911F816108170F6B28A
:10090000714810EB4600F6B26F4911EB4601497889
:10091000C170761CE7E7E4B2032C02DAE4B2002CE3
:100920000ED1EDB2032D02DAEDB2002D08D16748E9
:10093000112101700122FF21FF20FFF73DFFB3E0ED
:10094000E4B2012C1DD1EDB2012D1AD15F48222154
:1009500001705C4890F904005A4991F90010401A5E
:1009600040B2332807DB0822564801795548007801
:10097000FFF722FF98E00122FF21FF20FFF71CFF75
:1009800092E0E4B2012C09D15048122101700222F8
:10099000FF214C480078FFF70FFF85E0EDB2012DF5
:1009A00009D14A4821210170042246480179FF20DB
:1009B000FFF702FF78E0E4B2022C02D0EDB2022D84
:1009C0006DD1FF274FF0FF08404800210170E4B2CD
:1009D000022C09D10020FFF729FF07003B480078CF
:1009E000001D3A49087004E038480078401C374937
:1009F0000870EDB2022D09D10120FFF717FF8046E4
:100A00003248007840303149087004E02F480078BF
:100A100010302E490870FFB2FF2F11D05FFA88F80E
:100A2000B8F1FF0F0CD02948007840002749087022
:100A300008224146C9B23800C0B2FFF7BDFE33E01C
:100A4000FFB2FF2F0CD021480078801C1F4908708E
:100A500002224146C9B23800C0B2FFF7ADFE23E022
:100A60005FFA88F8B8F1FF0F0CD0184800782030F2
:100A70001649087004224146C9B23800C0B2FFF7D7
:100A80009BFE11E0114800781130104908700122D6
:100A90004146C9B23800C0B2FFF78EFE04E00B48F1
:100AA000EE2101705FF0FF30BDE8F0810000000032
:100AB00080F00F402006FF1FD805FF1FC306FF1F51
:100AC000C406FF1FB805FF1FD005FF1FC206FF1F8A
:100AD000F8B504000D0016001F00EDB2202D02D263
:100AE000FFB2022F03D32421274800F047FAEDB2CA
:100AF000E4B2264850F82400F6B256F4807140F86B
:100B00002510F00705D5F6B2032E02D0F6B2132E4B
:100B10000DD1E4B21E4850F8240040690121A940DB
:100B20008843E4B21A4951F8241048612AE0E4B23B
:100B3000174850F8240040690121A9400843E4B255
:100B4000134951F824104861FFB2012F0DD1E4B2CE
:100B50000F4850F8240000680121A9400843E4B27E
:100B60000B4951F8241008600CE0E4B2084850F832
:100B7000240000680121A9408843E4B2044951F8E7
:100B800024100860F1BD0000082F00003804FF1F8A
:100B90002404FF1F38B504000D00E4B2002C05D179
:100BA000EDB2082D02DBEDB2132D0DDBE4B2012C0A
:100BB00005D1EDB2042D02DBEDB2122D04DB2221B2
:100BC000DFF84C0300F0DAF9E4B2002C03D0012C7A
:100BD00000F0828037E1DFF83C03006850F00060ED
:100BE000DFF830130860DFF83003006830F0900061
:100BF000DFF824130860DFF8200300210160EDB264
:100C00002800083801280CD9801E01281BD9801E15
:100C100001282AD9801E012839D9C01E012848D9A7
:100C200058E0DFF8F802006850F48060DFF8EC125A
:100C30000860EDB2A80000F1804010F5942000217A
:100C400040F8201C47E0DFF8D402006850F4007040
:100C5000DFF8C8120860EDB2A80000F1804010F57E
:100C60009220002140F80C1C35E0DFF8B00200684B
:100C700050F48060DFF8A4120860EDB2A80000F123
:100C8000804010F59420002140F8281C23E0DFF874
:100C90008C02006850F40060DFF880120860EDB24A
:100CA000A80000F1804010F59620002140F8381C83
:100CB00011E0DFF86802006850F40050DFF85C12C1
:100CC0000860EDB2A80000F1804010F59A200021E4
:100CD000C16100E0B7E0B6E0DFF84402006850F020
:100CE0000060DFF83C120860DFF82C02006830F486
:100CF0001040DFF824120860DFF81C0200210160B8
:100D0000DFF82002006850F01000DFF818120860C9
:100D1000EDB22800001F11D0401E20D0401E2FD061
:100D2000401E3ED0401E01284CD9801E03285BD9AE
:100D3000001F01286AD9C01E78D083E0DFF8DC01EB
:100D4000006850F40060DFF8D4110860EDB2A8002C
:100D500000F1804010F596200021016172E0DFF87B
:100D6000BC01006850F40060DFF8B0110860EDB21B
:100D7000A80000F1804010F596200021016161E09B
:100D8000DFF89801006850F40060DFF89011086007
:100D9000EDB2A80000F1804010F59620002101611D
:100DA00050E0DFF87801006850F40060DFF86C1163
:100DB0000860EDB2A80000F1804010F596200021F7
:100DC00001613FE0DFF85401006850F48060DFF813
:100DD0004C110860EDB2A80000F1804010F594209D
:100DE000002140F8201C2DE0DFF83001006850F4AD
:100DF0008060DFF828110860EDB2A80000F18040A3
:100E000010F59420002140F8181C1BE043480068AE
:100E100050F4806041490860EDB2A80000F18040C4
:100E200010F59420002140F8101C0BE03B480068AE
:100E300050F4007039490860EDB23B48002140F899
:100E40002510FFE7FFE731BDF8B504000D001600DF
:100E50000027E4B2002C05D1EDB2082D02DBEDB283
:100E6000132D0CDBE4B2012C05D1EDB2042D02DB15
:100E7000EDB2122D03DB9021254800F07FF83200FF
:100E8000D2B22900C9B22000C0B200F01CF8E4B20E
:100E9000264850F8240000680006F8D5E4B223483C
:100EA00050F8240000690700E4B2204850F82400FC
:100EB000006830F08000E4B21C4951F8241008604A
:100EC000380080B2F2BD70B504000D00160015F0B8
:100ED0001F0050F0400016490872B00010F00C00DE
:100EE00050F0500012490870114814214170104808
:100EF00041F2342141800E4845F2786181800C49ED
:100F0000E4B20A4850F8240000F014F870BD000064
:100F1000602E00003C80044018800440388004406B
:100F2000308004400CB00B40009004401004FF1FC0
:100F3000D404FF1F0A7882604A78C2604A888261BE
:100F40008A88C2618A790262CA794262CA68026585
:100F50000A7A02604A7A4260704750F8041B61B115
:100F600050F8042BD30744BFA9F101039A180023BA
:100F700042F8043B091FFAD1EFE7704738B5040087
:100F80000D0000F00BF82A002100034800F0F9FAE8
:100F900000F02DF8F7E700BFAC2F000080B501236B
:100FA00001220C210320FFF793FD012301220D21D3
:100FB0000320FFF78DFD012301220E210320FFF7FF
:100FC00087FD012301220F210320FFF781FD01BDD1
:100FD0001E4AD2681268012383409A43C9B211F0B5
:100FE000010383401A43194BDB681A60704710B540
:100FF000012301220C210320FFF76AFD01230122B6
:101000000D210320FFF764FD012301220E2103209F
:10101000FFF75EFD012301220F210320FFF758FD9A
:101020000C200400E4B2102C0EDA00212000C0B223
:10103000FFF7CEFF642000F0B9FA01212000C0B212
:10104000FFF7C6FF641CEDE710BD00002404FF1F7E
:1010500070B504000D0016003068012802D0022887
:1010600005D00AE02000C0B27168884705E0B0688A
:101070000470B068401CB060FFE72868401C28601E
:1010800070BD2DE9F04704005FF0000A5046A1460C
:101090005FF0000A89F800A019F10109002A1FD0A9
:1010A000D1F800A05546002D05D15FF0300A89F82F
:1010B00000A0401C38E0002D36D095FBF3FA5646D0
:1010C00003FB165A5746002F02D5FF43313700E085
:1010D0003037350089F8007019F10109401CEAE742
:1010E000D1F800A0D446BCF1000F05D15FF0300A62
:1010F00089F800A0401C17E0BCF1000F14D0BCFB25
:10110000F3FAD64603FB1ECAD046B8F10A0F02D244
:1011100018F1300801E018F13708F44689F800802A
:1011200019F10109401CE7E7BDE8F0872DE9F0411E
:1011300004000D0016001F00A046A84507DA3A007B
:1011400031003020FFF784FF18F10108F5E7BDE812
:10115000F0812DE9F04104000D0016001F00A046AB
:10116000A84507DA3A0031002020FFF771FF18F197
:101170000108F5E7BDE8F0812DE9F24F92B00400D7
:10118000150000200090129883469BF800000590FF
:10119000002800F0F2810598252813D005980A2828
:1011A00005D0220000A90598FFF752FF09E02200B0
:1011B00000A90D20FFF74CFF220000A90A20FFF72D
:1011C00047FFD7E1002081460020039003980028C4
:1011D00022D11BF1010B9BF8000020280ED0232800
:1011E00012D02B2807D02D2802D0302809D00EE0AD
:1011F00059F00109EAE759F00209E7E759F0040953
:10120000E4E759F00809E1E759F01009DEE7BBF11E
:10121000010B01200390D9E70020824600200390B3
:101220000398002813D11BF1010B9BF800000590D7
:101230003038092806D80A20059900FB0A10B0F1B9
:10124000300AEDE7BBF1010B01200390E8E71BF149
:10125000010B9BF800002E2811D100200390039869
:1012600000280ED11BF1010B9BF800003038092833
:1012700000D8F4E7BBF1010B01200390EFE7BBF1CD
:10128000010B1BF1010B9BF800004C2806D06828CD
:1012900002D06C2801D002E003E002E001E0BBF1E3
:1012A000010B1BF1010B9BF800000590582875D02D
:1012B000622800F0D580632800F01D81642813D0D7
:1012C000692811D06E2800F049816F2800F0BD8098
:1012D000702800F0D080732800F01681752800F087
:1012E000D58078285AD040E1286806902D1D0A2321
:1012F000012206A909A8FFF7C4FE070009A83818AB
:1013000006000698002803D52D2002907F1C0FE0D0
:101310005FEA897003D52B2002907F1C08E05FEA0A
:10132000497003D5202002907F1C01E0002002902C
:10133000002004905FEA097011D50298002804D0BB
:10134000220000A90298FFF783FE012004902300E9
:1013500000AA51463800FFF7E9FE574612E05FEA5F
:10136000C9700FD4230000AA51463800FFF7F1FEE0
:101370000298002804D0220000A90298FFF768FE16
:10138000012004900498002807D10298002804D076
:10139000220000A90298FFF75BFE98E02868019000
:1013A0002D1D1023002201A909A8FFF76AFE0700DE
:1013B00009A838180600002004905FEA097016D5C5
:1013C0005FEAC9600BD5220000A93020FFF740FE7C
:1013D000220000A97820FFF73BFE012004902300A3
:1013E00000AA51463800FFF7A1FE57461BE05FEA0E
:1013F000C97018D45FEAC96000D5BF1C230000AAD9
:1014000051463800FFF7A5FE5FEAC9600BD5220000
:1014100000A93020FFF71CFE220000A97820FFF76A
:1014200017FE012004905FEAC9600DD504980028DA
:101430000AD1220000A93020FFF70AFE220000A9ED
:101440007820FFF705FEBF1C41E0286801902D1DA4
:101450000823002201A909A8FFF713FE07001FE0D7
:10146000286801902D1D0223002201A909A8FFF779
:1014700008FE070014E0286801902D1D10230022AB
:1014800001A909A8FFF7FDFD070009E02868019000
:101490002D1D0A23002201A909A8FFF7F2FD07006C
:1014A00009A8381806005FEA097007D5230000AACA
:1014B00051463800FFF73AFE574608E05FEAC97028
:1014C00005D4230000AA51463800FFF742FE3078C9
:1014D000002806D0220000A93078FFF7B9FD761E5B
:1014E000F5E75FEAC97005D5230000AA5146380028
:1014F000FFF72FFE3EE0287807902D1D220000A95F
:101500000798FFF7A5FD35E0286880462D1DB8F146
:10151000000F22D0404600F05BF807005FEAC97078
:1015200005D4230000AA51463800FFF712FE98F8B0
:101530000000002808D0220000A998F80000FFF75A
:1015400087FD18F10108F2E75FEAC97005D52300AD
:1015500000AA51463800FFF7FCFD0BE02868089010
:101560002D1D08980099016004E0220000A905984B
:10157000FFF76EFD1BF1010B07E6009813B0BDE805
:10158000F08F0EB47EB50400012000900648019053
:1015900007A805002A00210000A8FFF7EDFD0600BE
:1015A00030007EBC5DF810FB3D35000000231900C3
:1015B000814209D2054B1B681A00002A02D000BFE5
:1015C000521EFAE7491CF3E770470000BC06FF1FF4
:1015D00001000A000023002A01D1002007E01000CA
:1015E000421C0078002801D05B1CF8E71800704707
:1015F00080B500F08DFA00F0A7FA00F005FBDFF8E7
:10160000E803FFF7BEFFDFF8E4030068DFF8E0134C
:101610004979491CB0FBF1F00090DFF8D003006875
:10162000DFF8CC130979491CB0FBF1F3DFF8BC03F8
:101630000068DFF8BC13C978491CB0FBF1F2DFF891
:10164000AC030168DFF8AC03FFF79BFFDFF8A803EA
:101650000078400703D5DFF8A403FFF792FFDFF817
:1016600098030078800703D5DFF89403FFF789FF1C
:10167000DFF884030078C00703D5DFF88803FFF79D
:1016800080FFDFF884030078000603D5DFF87C03D1
:10169000FFF777FFDFF870030078400603D5DFF827
:1016A0007003FFF76EFFDFF860030078800603D554
:1016B000DFF86003FFF765FFDFF84C0300784007B1
:1016C00003D5DFF85403FFF75CFFDFF83C03007835
:1016D000800703D5DFF84403FFF753FFDFF8280343
:1016E0000078C00703D5DFF83803FFF74AFFDFF8BB
:1016F0003403FFF746FFDFF83003DFF8301388428A
:1017000004D0DFF82C03FFF73CFF03E0DFF82403ED
:10171000FFF737FF00F003F800F0A4FAFEE780B50A
:10172000DFF814030068000910F0070000280BD050
:10173000022813D00DD3042819D014D306281ED0A4
:1017400019D307281FD022E0DFF8F002FFF719FFB6
:1017500020E0DFF8EC02FFF714FF1BE0DFF8E40203
:10176000FFF70FFF16E0B848FFF70BFF12E0B7488E
:10177000FFF707FF0EE0B648FFF703FF0AE0B548A2
:10178000FFF7FFFE06E0B448FFF7FBFE02E0B348B8
:10179000FFF7F7FEA848006810F00F00022812D0EB
:1017A000042814D0052816D0062818D007281AD0E7
:1017B00008281CD009281ED00A2820D00C2822D0A6
:1017C0000E2824D027E0A648FFF7DBFE26E0A54838
:1017D000FFF7D7FE22E0A448FFF7D3FE1EE0A348A0
:1017E000FFF7CFFE1AE0A248FFF7CBFE16E0A148B4
:1017F000FFF7C7FE12E0A048FFF7C3FE0EE09F48C8
:10180000FFF7BFFE0AE09E48FFF7BBFE06E09D48DB
:10181000FFF7B7FE02E09C48FFF7B3FE864800687A
:10182000000B10F00F00002803D0022809D004D3C9
:101830000BE09648FFF7A5FE0AE09548FFF7A1FEEA
:1018400006E09448FFF79DFE02E09348FFF799FEFB
:1018500000F06AF891480068000E10F00F000728A9
:1018600006D0092808D00B280AD00F280CD00FE08A
:101870008B48FFF786FE0EE08A48FFF782FE0AE0FB
:101880008948FFF77EFE06E08748FFF77AFE02E010
:101890008648FFF776FE86480068000203D5854833
:1018A000FFF76FFE1EE07D480068000F002806D09D
:1018B000072808D009280AD00F280CD00FE07E484E
:1018C000FFF75FFE0EE07D48FFF75BFE0AE07C4815
:1018D000FFF757FE06E07A48FFF753FE02E079482B
:1018E000FFF74FFE78480068000B10F00F00052846
:1018F00006D0072808D008280AD009280CD00FE005
:101900007248FFF73EFE0EE07148FFF73AFE0AE02C
:101910007048FFF736FE06E06F48FFF732FE02E040
:101920006E48FFF72EFE01BDF8B56D48032101702A
:101930006C48002101706C48002101706B48002147
:1019400001706B48012101706A488021017069486B
:1019500000780006FBD568480078040067480078E6
:101960000500674800780600664800780700FFB267
:101970000097F6B23300EDB22A00E4B221006248CB
:10198000FFF7FFFD56480321017056480021017002
:101990005548002101705548042101705448012127
:1019A0000170544880210170524800780006FBD530
:1019B00051480078040051480078050050480078EC
:1019C0000600504800780700FFB20097F6B23300D7
:1019D000EDB22A00E4B221004C48FFF7D2FD4548A1
:1019E000FF210170F1BD0000BC310000B806FF1FEF
:1019F0006404FF1FF82F000000E007406C34000073
:101A00005C3200004C35000001E007407C340000EF
:101A1000CC330000F43200000C33000078320000B8
:101A200058350000DC3100000000FF1F00000000FE
:101A300064350000703500002480044088350000C3
:101A40009035000098350000A0350000A835000052
:101A5000B0350000B8350000C0350000143100007A
:101A60008C3400009C340000AC340000BC34000016
:101A7000CC340000DC340000EC340000FC34000006
:101A80000C3500001C350000E8300000E033000099
:101A9000F433000008340000403000004C80044063
:101AA000243300003C33000054330000FC310000BC
:101AB000508004402C3500006C330000843300005B
:101AC0009C3300001C320000007004401C340000F5
:101AD00030340000443400005834000094320000D8
:101AE00007000240060002400500024004000240D8
:101AF0000F000240000002400B0002400A000240BA
:101B000009000240080002403C3100003C32000065
:101B100080B500F009F80A4800884FF6FE710840C9
:101B20000749088001BD000072B606484CF22051FA
:101B3000018004484DF62811018062B6704700000C
:101B4000002005400E2005402DE9F8432448254992
:101B500088420DD000208046B8F5826F08D2204818
:101B6000204951F8281040F8281018F10108F3E72F
:101B70001B4800F00FF91C4807001C4806001C48D1
:101B80000400A01B80464046B0F10108002804D0A4
:101B900030783870761C7F1CF5E716488146164869
:101BA0000500B5EB090080464046B0F10108002869
:101BB00005D0002089F8000019F10109F4E70F4869
:101BC0000F49104A531A98464346B3F10108002BB7
:101BD00004D00B780370491C401CF5E7BDE8F18385
:101BE0000000FF1F000000001004FF1FEC2D00008C
:101BF000602E0000D404FF1FC706FF1F8404FF1FD0
:101C00005C2F0000AC2F000080B51148006850F434
:101C100078500F490860642000F01EF90D490860F3
:101C20000C4800684FF47A7148430B4908600A4831
:101C300000680A490968C1F30361491CB0FBF1F06F
:101C4000074908604FF46141002000F07FFA01BDB0
:101C500038800440B806FF1FB406FF1F44800440CC
:101C6000BC06FF1F38B572B6002400F0BDFB00F0C3
:101C700075FB62B63A4800780128FBD1384800214C
:101C800001703848FEF762FC002201213548FEF75A
:101C9000E9FC3548017835480078FEF71FFE05005D
:101CA0006DB27F2D0FD000200400E4B2822C08DA40
:101CB000E4B22F482018E4B22D49615C4170641CE5
:101CC000F3E72B48057000F0C9FB2A482A49097838
:101CD00041602848294909688160264828490968DF
:101CE000C1602448274909780161224826490978BA
:101CF0008161204824494978C1611E482249897878
:101D000001621C482049097941621A481E494979F3
:101D1000816218481C498979C16216481B490968C3
:101D20000163134890F9000080301249C8631048DD
:101D300090F9010080300F4908640D4890F90200C5
:101D400080300C49486412480078401C10490870E3
:101D50000F4800780A288DDB0D480021017089E7C3
:101D6000C106FF1F2006FF1FC406FF1FC306FF1F7B
:101D70002805FF1FD805FF1FD005FF1F5004FF1FB8
:101D80004C04FF1F6004FF1FB805FF1FAC05FF1FB9
:101D9000C606FF1F26490860704738B504005C2C52
:101DA00002DB2448FFF7EDFB202094FBF0F0050058
:101DB000002D03D0022D27D013D337E0012020219E
:101DC00094FBF1F202FB114290401B490860012094
:101DD000202194FBF1F202FB114290401749086068
:101DE00024E00120202194FBF1F202FB11429040FB
:101DF000134908600120202194FBF1F202FB1142FB
:101E000090401049086011E00120202194FBF1F27C
:101E100002FB114290400C4908600120202194FBF4
:101E2000F1F202FB114290400849086031BD000008
:101E300008ED00E08030000080E200E000E100E01A
:101E400084E200E004E100E088E200E008E100E074
:101E5000DFF800F08504FF1F38B50400E4B2002C61
:101E600000F00681E4B2200030281ED0322823D0B2
:101E7000602828D064282DD06E2832D0782837D01A
:101E80007D283CD0822841D08C2846D096284BD043
:101E9000A02850D0AA2855D0B4285AD0C8285FD03E
:101EA000E12864D0FA2869D06FE0A04818210170B9
:101EB0009E48002141706CE09C48182101709B48AD
:101EC0000121417065E09948182101709748182157
:101ED00041705EE095481821017094481A214170C4
:101EE00057E092481821017090481F21417050E03E
:101EF0008E48132101708D481821417049E08B48AC
:101F00001321017089481A21417042E0874813214A
:101F1000017086481C2141703BE084480E2101700D
:101F200082481221417034E080480E2101707F48C0
:101F3000152141702DE07D480E2101707B4818214C
:101F4000417026E079480E21017078481B214170CC
:101F50001FE076480E21017074481E21417018E080
:101F600072480C21017071481C21417011E06F48CA
:101F70000B2101706D481E2141700AE06B480A2157
:101F800001706A481F21417003E06420FFF764FF7D
:101F9000CAE0664800218170E4B2332C03DA63485A
:101FA0000021C17017E0E4B2652C03DA5F4801211B
:101FB000C17010E0E4B2972C03DA5C480221C170D2
:101FC00009E0E4B2C92C03DA58480321C17002E0E9
:101FD00056480F21C17055485449C9780171E4B27F
:101FE0001A2C03DA51480021417141E0E4B2332C4C
:101FF00003DA4E48012141713AE0E4B24C2C03DA95
:102000004A480221417133E0E4B2652C03DA4748C3
:10201000032141712CE0E4B27E2C03DA4348042111
:10202000417125E0E4B2972C03DA40480521417163
:102030001EE0E4B2B02C03DA3C480621417117E0FF
:10204000E4B2C92C03DA39480721417110E0E4B247
:10205000E22C03DA35480821417109E0E4B2FB2C97
:1020600003DA32480921417102E030480F21417101
:102070002E484078183080B2322148432B490978E5
:10208000491C89B290FBF1F005002948002101703C
:102090002848006850F0805026490860264800789B
:1020A00050F0800024490870244898210170244889
:1020B0000078C006FBD422480078C0F38100C0B28B
:1020C0000228F8D11948007810F01F001D49087047
:1020D0001D480021017015484379144802791348BE
:1020E000C17812488078FFF7B3FE1048407810F0AE
:1020F0001F0050F040001449087011480078800615
:10210000FBD50F4800784006FBD50C48007810F04E
:102110003F000A4908700A480078C0F38100C0B245
:102120000328F8D12800C0B232BD00BF6404FF1FED
:10213000014006403480044008C00740004006408B
:10214000064006400440064005400640F0B4C0B2D8
:10215000002808D0022824D014D304283FD02FD33D
:1021600005284BD059E06C4E4FF4407737606B4EEA
:102170004FF4407737606A4E366856F48066684F91
:102180003E604AE0674E4FF440773760664E4FF44A
:1021900040773760624E366856F40066604F3E60A6
:1021A0003BE0624E4FF440773760614E4FF440772A
:1021B00037605B4E366856F48056594F3E602CE0CF
:1021C0005C4E4FF4407737605B4E4FF4407737609A
:1021D000534E366856F40056514F3E601DE0574E40
:1021E0004FF440773760564E4FF440773760554E86
:1021F000366856F48066534F3E600EE0524E4FF400
:1022000040773760514E4FF4407737604D4E366817
:1022100056F400664B4F3E60FFE7C0B24C4E56F896
:102220002060F67816F0F306C0B2494F57F82070D8
:10223000FE70C0B2464E56F820600027B770C0B29C
:10224000002801D1012600E00026C0B2012801D1FA
:10225000012700E00027F6B2FFB23E43002E06D071
:102260003C4E36684FF47A777E43350005E03A4EAF
:1022700036684FF47A777E4335000E01B5FBF6F6EB
:102280003200C0B2324E56F82060367816F0E006C2
:10229000340092B2160A16F01F062643C0B22C4F25
:1022A00057F820703E70C0B2294E56F82060727008
:1022B0006E010F01B6FBF7F692B2B6EB4216330091
:1022C000C0B2234E56F82060B67A16F0E00634000D
:1022D000C0B21F4E56F8206013F01F072743B77295
:1022E000C0B21B4E56F82060F67856F00C06C0B20D
:1022F000174F57F82070FE70F0BC7047C0B2144AF8
:1023000052F8202012791206F8D5C0B2104A52F8BD
:102310002020D1717047000018C004401CC0044048
:10232000348004400CB0044010B004400CC00440A1
:1023300008C0044040B0044044B0044064D00440AD
:1023400060D004402880044024D0044020D00440C1
:102350006C04FF1FB406FF1FBC06FF1F80B5FEF70D
:102360007EF8C22347F6FF728021042000F0B4F803
:1023700000F0EAF94FF461410020FFF7E7FE002387
:10238000002211210020FEF7A3FB002300221221CE
:102390000020FEF79DFB0123012218210420FEF7F7
:1023A00097FB012301221A210420FEF791FB21480B
:1023B0000168002000F0A4FA1F48036842F210727E
:1023C0000021012000F0D4FA1C48036842F2107288
:1023D0000021022000F0CCFA32234FF49672002143
:1023E000002000F0C5FA01BD134800210160134828
:1023F00040F6AC51016012481E2101601148732162
:102400000160114828210160104804210160104832
:10241000042101600F4801210170704780B504203C
:1024200000F055F90C490860042000F05EF90A48F4
:10243000006802BDBC06FF1FB005FF1FB405FF1FEB
:102440004C04FF1F5004FF1F5404FF1F5804FF1FBC
:102450005C04FF1FC006FF1F2405FF1F10B51A48AC
:1024600000681A4991F90010194A1268174B93F93C
:102470000030164C94F901401B1B5A4301FB00200D
:1024800000F58050FE30134908601248006841F2A0
:10249000D571884204DB41F2D4700E4908600BE02C
:1024A0000C48006840F6FC01884204DA40F6FC0063
:1024B0000849086000E00120064802680021002069
:1024C00000F0E3FB10BD00004C04FF1F2805FF1FB8
:1024D0005004FF1FAC05FF1F2DE9F84305000E0057
:1024E000170098465FF000095FFA89F9B9F1000F0B
:1024F00001D101240EE05FFA89F9B9F1010F01D190
:10250000022407E05FFA89F9B9F1020F01D104242E
:1025100000E01024B7F5004F02D347F6FF70070024
:10252000EDB2804840F825707648006850F002000F
:10253000744908607448006850F0020072490860ED
:10254000EDB268017149784A4250EDB2680100F17C
:10255000804010F5104074490161EDB2680100F14E
:10256000804010F5104000218180EDB2680100F13B
:10257000804010F51040002181825FFA89F95FEAFE
:10258000092010F4E0605FFA89F919F007010843A7
:10259000EDB2690101F1804111F51041C880EDB241
:1025A000680100F1804010F5104039004904490CE1
:1025B000C182EDB2680100F1804010F51040390091
:1025C000C905C90DC1835248006830F080005049E8
:1025D0000860EDB2680100F1804010F51040E4B2EF
:1025E0008460EDB2680100F1804010F5104079423E
:1025F000C160EDB2680100F1804010F5104000218B
:102600008161EDB2680100F1804010F510400A21AF
:102610008183F6B27009313050F08000EDB23D494F
:1026200068543D4800684FF40071F6B27209914059
:10263000084339490860F6B27011384951F8200052
:10264000F6B27111354A52F821104969012216F08B
:102650001F039A4091434161F6B216F01F00F6B293
:1026600071112F4A52F821105FFA88F818F003020E
:102670005FFA88F85FEA9813DBB253EA024252F439
:10268000807241F82020F6B2002E01D0012000E037
:102690000020F6B27111214A52F82110F6B27211DF
:1026A0001E4B53F822205269012313FA00F032EA3C
:1026B000000048611D4800680121A94008431B49EA
:1026C0000860EDB22800FFF768FBBDE8F183010068
:1026D000C9B2144850F82100C9B24A0102F180423F
:1026E00012F51042D28A801A7047C0B2410101F13E
:1026F000804111F51041C0B20A4A52F82020CA8226
:1027000070470000408004403C800440009000403E
:102710000080004000100240388004402404FF1F65
:102720003804FF1FE404FF1F0C0004400C8000402D
:1027300000231900092906D20200002A01D0521EE6
:10274000FBE7491CF6E7704780B50123012204210D
:102750000320FEF7BDF90123012202210320FEF729
:10276000B7F90123012200210320FEF7B1F901236B
:10277000012211210220FEF7ABF9012301220F21D2
:102780000220FEF7A5F9012301220D210220FEF708
:102790009FF9DFF86401006830F01000DFF858118D
:1027A00008600120FFF7C4FFDFF84C01006850F01B
:1027B0001000DFF844110860DFF83C01006830F0D9
:1027C0000400DFF8341108600120FFF7B1FFDFF8E3
:1027D0002801006850F00400DFF81C110860012097
:1027E000FFF7A6FF0021212000F034F80021BA20D5
:1027F00000F030F80021062000F02CF80021132012
:1028000000F028F80021202000F024F800F00DF856
:1028100000210C2000F01EF8DFF8DC00006830F02A
:102820000400DFF8D410086001BD10B500210C20B1
:1028300000F010F80021802000F00CF800200400C7
:10284000B4F5FC7F05D20121002000F003F8641CE0
:10285000F6E710BD10B4DFF8A0301B6833F00403B6
:10286000DFF894402360C9B2002908D1DFF888302E
:102870001B685B085B00DFF88040236007E0DFF83F
:1028800078301B6853F00103DFF86C4023600023AD
:102890001A00D2B2082A25DA030608D5DFF85C3020
:1028A0001B6853F40033DFF85440236007E0DFF87F
:1028B0004C301B6833F40033DFF840402360DFF80E
:1028C0003C301B6833F40043DFF8304023604000A5
:1028D000DFF828301B6853F40043DFF82040236002
:1028E000521CD6E7DFF810301B6853F00403DFF802
:1028F0000840236010BC7047C0F00F4080F00F40CC
:1029000038B504000D001748006850F40000154960
:102910000860154800688008800013490860E4B228
:10292000200112494550E4B2104810EB0410C06871
:1029300050F00100E4B20D4911EB0411C860E4B29B
:102940000A4810EB0410806850F00300E4B2074915
:1029500011EB04118860E4B214F14400FFF71DFA92
:1029600031BD00003C800440007003400071034012
:102970002DE9F84F04000D0016001F00DFF890034A
:1029800000684FF47A7148435FEA5008E4B2002CC3
:102990000DD0E4B2012C02D0E4B2022C02D1EDB28F
:1029A000022D04DB3821DFF86C03FEF7E7FA5FEA5B
:1029B0005800B04204D23921DFF85803FEF7DEFA9E
:1029C0005FEA1840B0FBF6F08146002082461FFA0D
:1029D00089F959FA0AF0012802DB1AF1010AF6E72F
:1029E000B6F57A7F01D21AF1010A38FA0AF0B0FB83
:1029F000F6F081461FFA89F919F1010000FB07F092
:102A000042F21071B0FBF1F08346E4B2002C05D025
:102A1000022C00F0B880C0F08A80E0E0DFF8F80215
:102A2000006850F08070DFF8F0120860EDB2002D01
:102A30000BD0022D25D016D3042D3ED02FD3062D3A
:102A400057D048D3072D62D06FE0DFF8D00200687E
:102A500050F40060DFF8C4120860DFF8C4024FF4DD
:102A60008061016062E0DFF8B402006850F4006049
:102A7000DFF8A8120860DFF8AC024FF48061016053
:102A800054E0DFF89802006850F40060DFF88C1220
:102A90000860DFF894024FF48061016046E0DFF8DF
:102AA0007C02006850F40060DFF870120860DFF804
:102AB0007C024FF48061016038E0DFF8600200685A
:102AC00050F48050DFF854120860DFF864024FF4CD
:102AD000806101602AE0DFF84402006850F4805011
:102AE000DFF838120860DFF84C024FF480610160B3
:102AF0001CE0DFF82802006850F48050DFF81C1258
:102B00000860DFF834024FF4806101600EE0DFF806
:102B10000C02006850F48050DFF800120860DFF803
:102B20001C024FF48061016000E0ACE057E0DFF888
:102B3000E801006850F00070DFF8DC110860EDB2C9
:102B4000002D02D0012D0ED01BE0DFF8D00100686F
:102B500050F40070DFF8C4110860DFF8E4014FF4AE
:102B6000407101600EE0DFF8B401006850F40070BD
:102B7000DFF8A8110860DFF8CC014FF44071016064
:102B800000E080E02BE0DFF8C001006850F08070CA
:102B9000DFF8B4110860EDB2002D02D0012D0ED087
:102BA0001BE0DFF87801006850F40070DFF86C116A
:102BB0000860DFF898014FF4407101600EE0DFF823
:102BC0005C01006850F40070DFF850110860DFF815
:102BD00080014FF44071016000E054E0FFE7EDB286
:102BE000E4B2DFF8700150F8240010EBC500EDB23C
:102BF000E4B2DFF8601151F8241011EBC501C96887
:102C000031F00401C160EDB2E4B2DFF8480150F8E0
:102C1000240010EBC5002821C160E4B2DFF83401C4
:102C200050F824005FFA8AFA1AF0070151F02801DF
:102C30000160E4B2DFF81C0150F824000021C164F7
:102C4000E4B2DFF8100150F824001FFA89F9C0F847
:102C50000890E4B2DFF8FC0050F824000021C164C1
:102C6000EDB2E4B2DFF8EC0050F8240010EBC50040
:102C70001FFA8BFBC0F810B0E4B2DFF8D80050F8B0
:102C8000240000214160BDE8F18F2DE9F0410400EE
:102C90000D0016005FF00008E4B2002C0ED0E4B284
:102CA000012C02D0E4B2022C02D1EDB2022D05DBE0
:102CB0004FF4B071DFF85C00FEF760F942F211707A
:102CC000864205D340F26111DFF84800FEF756F95D
:102CD000B8F1000F07D1E4B2DFF8780050F8240013
:102CE00080688046F4E718F1010000FB06F042F22C
:102CF0001071B0FBF1F00700EDB2E4B2DFF8540060
:102D000050F8240010EBC5000761BDE8F081000019
:102D1000BC06FF1FB42E00003C80044038800440F5
:102D200004B0044008B004400CB0044010B00440AB
:102D300010C0044014C0044018C004401CC004402B
:102D400020900440249004403080044028900440A7
:102D50002C9004401804FF1F80B51E48006850F0F6
:102D600001001C4908601C480078401C1A49087082
:102D70001948007819490978884201D1FDF787FB85
:102D8000154800780721144A1278052A03D1FFF765
:102D900045FB13490860104800780A2805D10E4801
:102DA000002101700F480121017001BD72B662B6A9
:102DB000704780B50023012218210420FDF788FE0A
:102DC000002301221A210420FDF782FE0648FEF7A7
:102DD000D8FBFBE70C710340C506FF1F6004FF1F13
:102DE000D805FF1FC106FF1F9C31000000B0034043
:102DF00000B00B40008003400090034000800B4077
:102E000000F00F4040F00F4080F00F40C0F00F4046
:102E100000F10F400090044000A0044000B00440C6
:102E200000C0044000D00440320000000400000054
:102E3000280000000400000004000000080000005A
:102E40000B1F00000009000000A0064000B0064073
:102E500000C0064000D0064000A00E4000B00E406A
:102E6000433A5C55736572735C6C656E6F766F5C2C
:102E70004465736B746F705CD2BBD0A9B2E2CAD4E4
:102E8000B3CCD0F25C4343445C4343642D62636142
:102E90006B757066202D20B8B1B1BE5C7372635C37
:102EA000647269766572735C6164635C6164632EED
:102EB00063000000433A5C55736572735C6C656E29
:102EC0006F766F5C4465736B746F705CD2BBD0A916
:102ED000B2E2CAD4B3CCD0F25C4343445C43436413
:102EE0002D6263616B757066202D20B8B1B1BE5C38
:102EF0007372635C647269766572735C46544D5C90
:102F000046544D2E63000000433A5C55736572735E
:102F10005C6C656E6F766F5C4465736B746F705C30
:102F2000D2BBD0A9B2E2CAD4B3CCD0F25C43434402
:102F30005C4343642D6263616B757066202D20B81D
:102F4000B1B1BE5C7372635C647269766572735C06
:102F50006770696F5C6770696F2E6300F0B4114E23
:102F6000366834000F4E366856F47F060D4F3E60CB
:102F70000E0616F0706656EA0076170517F470070D
:102F80003E431F0417F470273E43074F3E60002660
:102F90003500EDB29D4201D26D1CFAE7014E34605E
:102FA000F0BC704700F0014044800440B6CFD1D45B
:102FB000B7A2C9FAD4DA2573CEC4BCFEB5C4B5DA5B
:102FC0002564D0D0A3A10AB6CFD1D4CCF5BCFEB233
:102FD000BBB3C9C1A2A3ACC7EBBCECB2E2B4EDCEAB
:102FE000F3D4ADD2F2A1A309A1AAA1AA20627920AB
:102FF000D2B0BBF00A0A0000C4DABACBC6B5C2CA66
:10300000A3BA25644D487A09D7DCCFDFC6B5C2CA5A
:1030100020A3BA25644D487A0A666C6578C6B5C2A5
:10302000CAA3BA25644D487A2009666C617368C6E4
:10303000B5C2CAA3BA25644D487A0A0A0000000046
:103040000A546869732076657273696F6E206F66C3
:1030500020736F66747761726520646F65736E2785
:1030600074207265636F676E697A65207468652085
:103070007265766973696F6E20636F64652E0000F8
:103080000A4552522120496E76616C69642049528A
:10309000512076616C75652070617373656420746E
:1030A0006F20656E61626C65206972712066756E55
:1030B0006374696F6E210A000A2A2A2A2A646566E7
:1030C00061756C745F69737220656E746572656496
:1030D000206F6E20766563746F722025642A2A2A19
:1030E0002A2A0D0A0A0000000A556E7265636F678E
:1030F0006E697A6564204B696E65746973207061CE
:10310000636B61676520636F64652E20202020203B
:10311000200000000A556E7265636F676E697A65FC
:1031200064204B696E657469732066616D696C79A2
:10313000206465766963652E0A000000466C617341
:103140006820706172616D65746572207665727356
:10315000696F6E2025642E25642E25642E25640A51
:103160000000000010B5074979441831064C7C4432
:10317000163404E00A68081D511888470146A14228
:10318000F8D110BD0800000014000000CFDDFFFFE3
:10319000F4010000D404FF1F000000000A2A2A2ABC
:1031A0002AD3B2BCFEC9CFB7C3B4EDCEF3212121DF
:1031B0002A2A2A2A2A0D0A0A000000000A0A0909F6
:1031C000D2B0BBF06B696E65746973BACBD0C4B012
:1031D000E5B2E2CAD4B3CCD0F20A00000AD2B0BB46
:1031E000F04B696E65746973BFAAB7A2B0E5C6F407
:1031F000B6AFB7BDCABDA3BA000000004552522108
:103200002120556E646566696E656420502D666C7C
:103210006173682073697A650A0000004552522183
:103220002120556E646566696E656420466C65781C
:103230004E564D2073697A650A000000466C617332
:10324000682076657273696F6E2049442025642E6C
:1032500025642E25642E25640A000000436F7265E4
:10326000204C6F636B7570204576656E74205265D7
:103270007365740A000000004C6F772D766F6C74D4
:103280006167652044657465637420526573657475
:103290000A000000455252212120556E646566697E
:1032A0006E65642052414D2073697A650A0A0000F8
:1032B00000F00BF8002801D0FFF754FF0020C046B3
:1032C000C046FEF7CFFC00F002F80120704700F086
:1032D00001B800000746384600F002F8FBE700009E
:1032E00080B5C046C046024A11001820ABBEFBE7BD
:1032F000260002005761746368646F6728434F506B
:10330000292052657365740A000000004C6F7373C6
:10331000206F6620436C6F636B2052657365740A7F
:1033200000000000313238206B4279746573206FE1
:103330006620502D666C61736809000032353620B6
:103340006B4279746573206F6620502D666C6173D3
:1033500068090000353132206B4279746573206F43
:103360006620502D666C61736809000030206B4246
:1033700079746573206F6620466C65784E564D0AE9
:1033800000000000313238206B4279746573206F81
:103390006620466C65784E564D0A00003235362060
:1033A0006B4279746573206F6620466C65784E5663
:1033B0004D0A000080B503480178C9B20248FEF703
:1033C000E0F801BD04ED00E0B83000004578746518
:1033D000726E616C2050696E2052657365740A00CC
:1033E00053696C69636F6E2072657620312E3020D0
:1033F00020200A0053696C69636F6E207265762025
:10340000312E3120200A000053696C69636F6E20F1
:1034100072657620312E3220200A00003332206B74
:103420004279746573206F662052414D0A0A00008C
:103430003634206B4279746573206F662052414D9B
:103440000A0A00003936206B4279746573206F6672
:103450002052414D0A0A0000313238206B42797403
:103460006573206F662052414D0A0A00536F6674DF
:10347000776172652052657365740A00506F7765D5
:10348000722D6F6E2052657365740A003332706955
:103490006E20202020202020000000003438706999
:1034A0006E2020202020202000000000363470698B
:1034B0006E2020202020202000000000383070697D
:1034C0006E2020202020202000000000383170696C
:1034D0006E2020202020202000000000313030709D
:1034E000696E202020202020000000003130347040
:1034F000696E20202020202000000000313434702C
:10350000696E202020202020000000003139367014
:10351000696E202020202020000000003235367007
:10352000696E20202020202000000000502D666CB5
:10353000617368206F6E6C790A00000010B504009A
:103540002100C9B20020FEF7D9FE10BD4A54414700
:103550002052657365740A004C4C575520526573B0
:1035600065740A00666C617368C6F4B6AF0A000041
:103570005352414DC6F4B6AF0A000000C046C046E3
:10358000C046C046FFF794FE0A4B31302D000000C4
:103590000A4B32302D0000000A4B33302D00000062
:1035A0000A4B34302D0000000A4B36302D0000004D
:1035B0000A4B37302D0000000A4B35302D0000003B
:0835C0000A4B35332D00000019
:040000050000357D45
:00000001FF
